{
  "_format": "hh-sol-artifact-1",
  "contractName": "LookUpContract",
  "sourceName": "contracts/LookUpContract.sol",
  "abi": [
    {
      "inputs": [],
      "stateMutability": "nonpayable",
      "type": "constructor"
    },
    {
      "inputs": [
        {
          "internalType": "address",
          "name": "owner",
          "type": "address"
        }
      ],
      "name": "OwnableInvalidOwner",
      "type": "error"
    },
    {
      "inputs": [
        {
          "internalType": "address",
          "name": "account",
          "type": "address"
        }
      ],
      "name": "OwnableUnauthorizedAccount",
      "type": "error"
    },
    {
      "inputs": [],
      "name": "ReentrancyGuardReentrantCall",
      "type": "error"
    },
    {
      "anonymous": false,
      "inputs": [
        {
          "indexed": true,
          "internalType": "address",
          "name": "_donor",
          "type": "address"
        },
        {
          "indexed": false,
          "internalType": "uint256",
          "name": "_amount",
          "type": "uint256"
        }
      ],
      "name": "DonationReceived",
      "type": "event"
    },
    {
      "anonymous": false,
      "inputs": [
        {
          "indexed": true,
          "internalType": "address",
          "name": "previousOwner",
          "type": "address"
        },
        {
          "indexed": true,
          "internalType": "address",
          "name": "newOwner",
          "type": "address"
        }
      ],
      "name": "OwnershipTransferred",
      "type": "event"
    },
    {
      "anonymous": false,
      "inputs": [
        {
          "indexed": true,
          "internalType": "uint256",
          "name": "id",
          "type": "uint256"
        },
        {
          "indexed": true,
          "internalType": "address",
          "name": "owner",
          "type": "address"
        },
        {
          "indexed": true,
          "internalType": "address",
          "name": "tokenAddress",
          "type": "address"
        }
      ],
      "name": "TokenCreated",
      "type": "event"
    },
    {
      "inputs": [
        {
          "internalType": "address",
          "name": "_owner",
          "type": "address"
        },
        {
          "internalType": "uint256",
          "name": "_tokenSupply",
          "type": "uint256"
        },
        {
          "internalType": "string",
          "name": "_tokenName",
          "type": "string"
        },
        {
          "internalType": "string",
          "name": "_tokenSymbol",
          "type": "string"
        },
        {
          "internalType": "address",
          "name": "_tokenAddress",
          "type": "address"
        },
        {
          "internalType": "string",
          "name": "_tokenTransactionHash",
          "type": "string"
        },
        {
          "internalType": "string",
          "name": "_tokenCreatedDate",
          "type": "string"
        }
      ],
      "name": "createERC20Token",
      "outputs": [
        {
          "components": [
            {
              "internalType": "uint256",
              "name": "tokenID",
              "type": "uint256"
            },
            {
              "internalType": "address",
              "name": "owner",
              "type": "address"
            },
            {
              "internalType": "uint256",
              "name": "tokenSupply",
              "type": "uint256"
            },
            {
              "internalType": "string",
              "name": "tokenName",
              "type": "string"
            },
            {
              "internalType": "string",
              "name": "tokenSymbol",
              "type": "string"
            },
            {
              "internalType": "address",
              "name": "tokenAddress",
              "type": "address"
            },
            {
              "internalType": "string",
              "name": "tokenTransactionHash",
              "type": "string"
            },
            {
              "internalType": "string",
              "name": "tokenCreatedDate",
              "type": "string"
            }
          ],
          "internalType": "struct LookUpContract.ERC20token",
          "name": "",
          "type": "tuple"
        }
      ],
      "stateMutability": "payable",
      "type": "function"
    },
    {
      "inputs": [],
      "name": "donate",
      "outputs": [],
      "stateMutability": "payable",
      "type": "function"
    },
    {
      "inputs": [],
      "name": "donationIndex",
      "outputs": [
        {
          "internalType": "uint256",
          "name": "",
          "type": "uint256"
        }
      ],
      "stateMutability": "view",
      "type": "function"
    },
    {
      "inputs": [],
      "name": "getAllDonations",
      "outputs": [
        {
          "components": [
            {
              "internalType": "uint256",
              "name": "donationID",
              "type": "uint256"
            },
            {
              "internalType": "address",
              "name": "donor",
              "type": "address"
            },
            {
              "internalType": "uint256",
              "name": "fund",
              "type": "uint256"
            }
          ],
          "internalType": "struct LookUpContract.Donation[]",
          "name": "",
          "type": "tuple[]"
        }
      ],
      "stateMutability": "view",
      "type": "function"
    },
    {
      "inputs": [],
      "name": "getAllERC20Tokens",
      "outputs": [
        {
          "components": [
            {
              "internalType": "uint256",
              "name": "tokenID",
              "type": "uint256"
            },
            {
              "internalType": "address",
              "name": "owner",
              "type": "address"
            },
            {
              "internalType": "uint256",
              "name": "tokenSupply",
              "type": "uint256"
            },
            {
              "internalType": "string",
              "name": "tokenName",
              "type": "string"
            },
            {
              "internalType": "string",
              "name": "tokenSymbol",
              "type": "string"
            },
            {
              "internalType": "address",
              "name": "tokenAddress",
              "type": "address"
            },
            {
              "internalType": "string",
              "name": "tokenTransactionHash",
              "type": "string"
            },
            {
              "internalType": "string",
              "name": "tokenCreatedDate",
              "type": "string"
            }
          ],
          "internalType": "struct LookUpContract.ERC20token[]",
          "name": "",
          "type": "tuple[]"
        }
      ],
      "stateMutability": "view",
      "type": "function"
    },
    {
      "inputs": [],
      "name": "getContractBalance",
      "outputs": [
        {
          "internalType": "uint256",
          "name": "",
          "type": "uint256"
        }
      ],
      "stateMutability": "view",
      "type": "function"
    },
    {
      "inputs": [
        {
          "internalType": "uint256",
          "name": "_tokenIndex",
          "type": "uint256"
        }
      ],
      "name": "getERC20Token",
      "outputs": [
        {
          "components": [
            {
              "internalType": "uint256",
              "name": "tokenID",
              "type": "uint256"
            },
            {
              "internalType": "address",
              "name": "owner",
              "type": "address"
            },
            {
              "internalType": "uint256",
              "name": "tokenSupply",
              "type": "uint256"
            },
            {
              "internalType": "string",
              "name": "tokenName",
              "type": "string"
            },
            {
              "internalType": "string",
              "name": "tokenSymbol",
              "type": "string"
            },
            {
              "internalType": "address",
              "name": "tokenAddress",
              "type": "address"
            },
            {
              "internalType": "string",
              "name": "tokenTransactionHash",
              "type": "string"
            },
            {
              "internalType": "string",
              "name": "tokenCreatedDate",
              "type": "string"
            }
          ],
          "internalType": "struct LookUpContract.ERC20token",
          "name": "",
          "type": "tuple"
        }
      ],
      "stateMutability": "view",
      "type": "function"
    },
    {
      "inputs": [],
      "name": "getERC20TokenListingPrice",
      "outputs": [
        {
          "internalType": "uint256",
          "name": "",
          "type": "uint256"
        }
      ],
      "stateMutability": "view",
      "type": "function"
    },
    {
      "inputs": [
        {
          "internalType": "address",
          "name": "_owner",
          "type": "address"
        }
      ],
      "name": "getUserERC20Tokens",
      "outputs": [
        {
          "components": [
            {
              "internalType": "uint256",
              "name": "tokenID",
              "type": "uint256"
            },
            {
              "internalType": "address",
              "name": "owner",
              "type": "address"
            },
            {
              "internalType": "uint256",
              "name": "tokenSupply",
              "type": "uint256"
            },
            {
              "internalType": "string",
              "name": "tokenName",
              "type": "string"
            },
            {
              "internalType": "string",
              "name": "tokenSymbol",
              "type": "string"
            },
            {
              "internalType": "address",
              "name": "tokenAddress",
              "type": "address"
            },
            {
              "internalType": "string",
              "name": "tokenTransactionHash",
              "type": "string"
            },
            {
              "internalType": "string",
              "name": "tokenCreatedDate",
              "type": "string"
            }
          ],
          "internalType": "struct LookUpContract.ERC20token[]",
          "name": "",
          "type": "tuple[]"
        }
      ],
      "stateMutability": "view",
      "type": "function"
    },
    {
      "inputs": [],
      "name": "listingFee",
      "outputs": [
        {
          "internalType": "uint256",
          "name": "",
          "type": "uint256"
        }
      ],
      "stateMutability": "view",
      "type": "function"
    },
    {
      "inputs": [],
      "name": "owner",
      "outputs": [
        {
          "internalType": "address",
          "name": "",
          "type": "address"
        }
      ],
      "stateMutability": "view",
      "type": "function"
    },
    {
      "inputs": [],
      "name": "renounceOwnership",
      "outputs": [],
      "stateMutability": "nonpayable",
      "type": "function"
    },
    {
      "inputs": [],
      "name": "tokenIndex",
      "outputs": [
        {
          "internalType": "uint256",
          "name": "",
          "type": "uint256"
        }
      ],
      "stateMutability": "view",
      "type": "function"
    },
    {
      "inputs": [
        {
          "internalType": "address",
          "name": "newOwner",
          "type": "address"
        }
      ],
      "name": "transferOwnership",
      "outputs": [],
      "stateMutability": "nonpayable",
      "type": "function"
    },
    {
      "inputs": [
        {
          "internalType": "uint256",
          "name": "_newListingFee",
          "type": "uint256"
        }
      ],
      "name": "updateListingFee",
      "outputs": [],
      "stateMutability": "nonpayable",
      "type": "function"
    },
    {
      "inputs": [],
      "name": "withdraw",
      "outputs": [],
      "stateMutability": "nonpayable",
      "type": "function"
    }
  ],
  "bytecode": "0x60806040526658d15e176280006002553480156200001c57600080fd5b5033600073ffffffffffffffffffffffffffffffffffffffff168173ffffffffffffffffffffffffffffffffffffffff1603620000935760006040517f1e4fbdf70000000000000000000000000000000000000000000000000000000081526004016200008a9190620001cb565b60405180910390fd5b620000a481620000c260201b60201c565b506001808190555060006005819055506000600681905550620001e8565b60008060009054906101000a900473ffffffffffffffffffffffffffffffffffffffff169050816000806101000a81548173ffffffffffffffffffffffffffffffffffffffff021916908373ffffffffffffffffffffffffffffffffffffffff1602179055508173ffffffffffffffffffffffffffffffffffffffff168173ffffffffffffffffffffffffffffffffffffffff167f8be0079c531659141344cd1fd0a4f28419497f9722a3daafe3b4186f6b6457e060405160405180910390a35050565b600073ffffffffffffffffffffffffffffffffffffffff82169050919050565b6000620001b38262000186565b9050919050565b620001c581620001a6565b82525050565b6000602082019050620001e26000830184620001ba565b92915050565b612a7780620001f86000396000f3fe6080604052600436106100f35760003560e01c80638da5cb5b1161008a578063dcbb62d111610059578063dcbb62d1146102fd578063ed88c68e14610328578063f2fde38b14610332578063f79d91ae1461035b576100f3565b80638da5cb5b1461023f5780639463c8381461026a578063a218547714610295578063d55f9273146102d2576100f3565b80633ccfd60b116100c65780633ccfd60b146101bb5780636a1b7ecc146101d25780636f9fb98a146101fd578063715018a614610228576100f3565b80630fbf0e31146100f857806311004e211461013557806319b68efd1461016057806338a59a0714610190575b600080fd5b34801561010457600080fd5b5061011f600480360381019061011a9190611c72565b610384565b60405161012c9190611e44565b60405180910390f35b34801561014157600080fd5b5061014a61070b565b6040516101579190611e75565b60405180910390f35b61017a60048036038101906101759190611ff1565b610711565b6040516101879190611e44565b60405180910390f35b34801561019c57600080fd5b506101a5610c83565b6040516101b291906121f4565b60405180910390f35b3480156101c757600080fd5b506101d0610dc1565b005b3480156101de57600080fd5b506101e7610ecb565b6040516101f49190611e75565b60405180910390f35b34801561020957600080fd5b50610212610ed1565b60405161021f9190611e75565b60405180910390f35b34801561023457600080fd5b5061023d610ee1565b005b34801561024b57600080fd5b50610254610ef5565b6040516102619190612225565b60405180910390f35b34801561027657600080fd5b5061027f610f1e565b60405161028c9190611e75565b60405180910390f35b3480156102a157600080fd5b506102bc60048036038101906102b79190612240565b610f28565b6040516102c991906123f4565b60405180910390f35b3480156102de57600080fd5b506102e761141a565b6040516102f49190611e75565b60405180910390f35b34801561030957600080fd5b50610312611420565b60405161031f91906123f4565b60405180910390f35b6103306117f5565b005b34801561033e57600080fd5b5061035960048036038101906103549190612240565b611946565b005b34801561036757600080fd5b50610382600480360381019061037d9190611c72565b6119cc565b005b61038c611b80565b60008211801561039e57506005548211155b6103dd576040517f08c379a00000000000000000000000000000000000000000000000000000000081526004016103d490612473565b60405180910390fd5b6003600083815260200190815260200160002060405180610100016040529081600082015481526020016001820160009054906101000a900473ffffffffffffffffffffffffffffffffffffffff1673ffffffffffffffffffffffffffffffffffffffff1673ffffffffffffffffffffffffffffffffffffffff16815260200160028201548152602001600382018054610476906124c2565b80601f01602080910402602001604051908101604052809291908181526020018280546104a2906124c2565b80156104ef5780601f106104c4576101008083540402835291602001916104ef565b820191906000526020600020905b8154815290600101906020018083116104d257829003601f168201915b50505050508152602001600482018054610508906124c2565b80601f0160208091040260200160405190810160405280929190818152602001828054610534906124c2565b80156105815780601f1061055657610100808354040283529160200191610581565b820191906000526020600020905b81548152906001019060200180831161056457829003601f168201915b505050505081526020016005820160009054906101000a900473ffffffffffffffffffffffffffffffffffffffff1673ffffffffffffffffffffffffffffffffffffffff1673ffffffffffffffffffffffffffffffffffffffff1681526020016006820180546105f0906124c2565b80601f016020809104026020016040519081016040528092919081815260200182805461061c906124c2565b80156106695780601f1061063e57610100808354040283529160200191610669565b820191906000526020600020905b81548152906001019060200180831161064c57829003601f168201915b50505050508152602001600782018054610682906124c2565b80601f01602080910402602001604051908101604052809291908181526020018280546106ae906124c2565b80156106fb5780601f106106d0576101008083540402835291602001916106fb565b820191906000526020600020905b8154815290600101906020018083116106de57829003601f168201915b5050505050815250509050919050565b60065481565b610719611b80565b60025434101561075e576040517f08c379a00000000000000000000000000000000000000000000000000000000081526004016107559061253f565b60405180910390fd5b600560008154809291906107719061258e565b919050555060405180610100016040528060055481526020018973ffffffffffffffffffffffffffffffffffffffff1681526020018881526020018781526020018681526020018573ffffffffffffffffffffffffffffffffffffffff168152602001848152602001838152506003600060055481526020019081526020016000206000820151816000015560208201518160010160006101000a81548173ffffffffffffffffffffffffffffffffffffffff021916908373ffffffffffffffffffffffffffffffffffffffff1602179055506040820151816002015560608201518160030190816108639190612782565b5060808201518160040190816108799190612782565b5060a08201518160050160006101000a81548173ffffffffffffffffffffffffffffffffffffffff021916908373ffffffffffffffffffffffffffffffffffffffff16021790555060c08201518160060190816108d69190612782565b5060e08201518160070190816108ec9190612782565b509050508373ffffffffffffffffffffffffffffffffffffffff168873ffffffffffffffffffffffffffffffffffffffff166005547f3ecf80517ebfa33777812e7abe7aba8f42e03f80ed9c79fbaca3c6d013437af960405160405180910390a460036000600554815260200190815260200160002060405180610100016040529081600082015481526020016001820160009054906101000a900473ffffffffffffffffffffffffffffffffffffffff1673ffffffffffffffffffffffffffffffffffffffff1673ffffffffffffffffffffffffffffffffffffffff168152602001600282015481526020016003820180546109e8906124c2565b80601f0160208091040260200160405190810160405280929190818152602001828054610a14906124c2565b8015610a615780601f10610a3657610100808354040283529160200191610a61565b820191906000526020600020905b815481529060010190602001808311610a4457829003601f168201915b50505050508152602001600482018054610a7a906124c2565b80601f0160208091040260200160405190810160405280929190818152602001828054610aa6906124c2565b8015610af35780601f10610ac857610100808354040283529160200191610af3565b820191906000526020600020905b815481529060010190602001808311610ad657829003601f168201915b505050505081526020016005820160009054906101000a900473ffffffffffffffffffffffffffffffffffffffff1673ffffffffffffffffffffffffffffffffffffffff1673ffffffffffffffffffffffffffffffffffffffff168152602001600682018054610b62906124c2565b80601f0160208091040260200160405190810160405280929190818152602001828054610b8e906124c2565b8015610bdb5780601f10610bb057610100808354040283529160200191610bdb565b820191906000526020600020905b815481529060010190602001808311610bbe57829003601f168201915b50505050508152602001600782018054610bf4906124c2565b80601f0160208091040260200160405190810160405280929190818152602001828054610c20906124c2565b8015610c6d5780601f10610c4257610100808354040283529160200191610c6d565b820191906000526020600020905b815481529060010190602001808311610c5057829003601f168201915b5050505050815250509050979650505050505050565b6060610c8d6119de565b600060065467ffffffffffffffff811115610cab57610caa611ec6565b5b604051908082528060200260200182016040528015610ce457816020015b610cd1611bf1565b815260200190600190039081610cc95790505b50905060005b600654811015610db95760046000600183610d059190612854565b8152602001908152602001600020604051806060016040529081600082015481526020016001820160009054906101000a900473ffffffffffffffffffffffffffffffffffffffff1673ffffffffffffffffffffffffffffffffffffffff1673ffffffffffffffffffffffffffffffffffffffff168152602001600282015481525050828281518110610d9b57610d9a612888565b5b60200260200101819052508080610db19061258e565b915050610cea565b508091505090565b610dc96119de565b610dd1611a65565b60004711610e14576040517f08c379a0000000000000000000000000000000000000000000000000000000008152600401610e0b90612903565b60405180910390fd5b60003373ffffffffffffffffffffffffffffffffffffffff1647604051610e3a90612954565b60006040518083038185875af1925050503d8060008114610e77576040519150601f19603f3d011682016040523d82523d6000602084013e610e7c565b606091505b5050905080610ec0576040517f08c379a0000000000000000000000000000000000000000000000000000000008152600401610eb7906129b5565b60405180910390fd5b50610ec9611aab565b565b60025481565b6000610edb6119de565b47905090565b610ee96119de565b610ef36000611ab4565b565b60008060009054906101000a900473ffffffffffffffffffffffffffffffffffffffff16905090565b6000600254905090565b60606000805b600554811015610fcf578373ffffffffffffffffffffffffffffffffffffffff1660036000600184610f609190612854565b815260200190815260200160002060010160009054906101000a900473ffffffffffffffffffffffffffffffffffffffff1673ffffffffffffffffffffffffffffffffffffffff1603610fbc578180610fb89061258e565b9250505b8080610fc79061258e565b915050610f2e565b5060008167ffffffffffffffff811115610fec57610feb611ec6565b5b60405190808252806020026020018201604052801561102557816020015b611012611b80565b81526020019060019003908161100a5790505b50905060005b60055481101561140f578473ffffffffffffffffffffffffffffffffffffffff166003600060018461105d9190612854565b815260200190815260200160002060010160009054906101000a900473ffffffffffffffffffffffffffffffffffffffff1673ffffffffffffffffffffffffffffffffffffffff16036113fc57600360006001836110bb9190612854565b815260200190815260200160002060405180610100016040529081600082015481526020016001820160009054906101000a900473ffffffffffffffffffffffffffffffffffffffff1673ffffffffffffffffffffffffffffffffffffffff1673ffffffffffffffffffffffffffffffffffffffff1681526020016002820154815260200160038201805461114f906124c2565b80601f016020809104026020016040519081016040528092919081815260200182805461117b906124c2565b80156111c85780601f1061119d576101008083540402835291602001916111c8565b820191906000526020600020905b8154815290600101906020018083116111ab57829003601f168201915b505050505081526020016004820180546111e1906124c2565b80601f016020809104026020016040519081016040528092919081815260200182805461120d906124c2565b801561125a5780601f1061122f5761010080835404028352916020019161125a565b820191906000526020600020905b81548152906001019060200180831161123d57829003601f168201915b505050505081526020016005820160009054906101000a900473ffffffffffffffffffffffffffffffffffffffff1673ffffffffffffffffffffffffffffffffffffffff1673ffffffffffffffffffffffffffffffffffffffff1681526020016006820180546112c9906124c2565b80601f01602080910402602001604051908101604052809291908181526020018280546112f5906124c2565b80156113425780601f1061131757610100808354040283529160200191611342565b820191906000526020600020905b81548152906001019060200180831161132557829003601f168201915b5050505050815260200160078201805461135b906124c2565b80601f0160208091040260200160405190810160405280929190818152602001828054611387906124c2565b80156113d45780601f106113a9576101008083540402835291602001916113d4565b820191906000526020600020905b8154815290600101906020018083116113b757829003601f168201915b5050505050815250508282815181106113f0576113ef612888565b5b60200260200101819052505b80806114079061258e565b91505061102b565b508092505050919050565b60055481565b6060600060055467ffffffffffffffff8111156114405761143f611ec6565b5b60405190808252806020026020018201604052801561147957816020015b611466611b80565b81526020019060019003908161145e5790505b50905060005b6005548110156117ed576003600060018361149a9190612854565b815260200190815260200160002060405180610100016040529081600082015481526020016001820160009054906101000a900473ffffffffffffffffffffffffffffffffffffffff1673ffffffffffffffffffffffffffffffffffffffff1673ffffffffffffffffffffffffffffffffffffffff1681526020016002820154815260200160038201805461152e906124c2565b80601f016020809104026020016040519081016040528092919081815260200182805461155a906124c2565b80156115a75780601f1061157c576101008083540402835291602001916115a7565b820191906000526020600020905b81548152906001019060200180831161158a57829003601f168201915b505050505081526020016004820180546115c0906124c2565b80601f01602080910402602001604051908101604052809291908181526020018280546115ec906124c2565b80156116395780601f1061160e57610100808354040283529160200191611639565b820191906000526020600020905b81548152906001019060200180831161161c57829003601f168201915b505050505081526020016005820160009054906101000a900473ffffffffffffffffffffffffffffffffffffffff1673ffffffffffffffffffffffffffffffffffffffff1673ffffffffffffffffffffffffffffffffffffffff1681526020016006820180546116a8906124c2565b80601f01602080910402602001604051908101604052809291908181526020018280546116d4906124c2565b80156117215780601f106116f657610100808354040283529160200191611721565b820191906000526020600020905b81548152906001019060200180831161170457829003601f168201915b5050505050815260200160078201805461173a906124c2565b80601f0160208091040260200160405190810160405280929190818152602001828054611766906124c2565b80156117b35780601f10611788576101008083540402835291602001916117b3565b820191906000526020600020905b81548152906001019060200180831161179657829003601f168201915b5050505050815250508282815181106117cf576117ce612888565b5b602002602001018190525080806117e59061258e565b91505061147f565b508091505090565b60003411611838576040517f08c379a000000000000000000000000000000000000000000000000000000000815260040161182f90612a21565b60405180910390fd5b6006600081548092919061184b9061258e565b9190505550604051806060016040528060065481526020013373ffffffffffffffffffffffffffffffffffffffff168152602001348152506004600060065481526020019081526020016000206000820151816000015560208201518160010160006101000a81548173ffffffffffffffffffffffffffffffffffffffff021916908373ffffffffffffffffffffffffffffffffffffffff160217905550604082015181600201559050503373ffffffffffffffffffffffffffffffffffffffff167f264f630d9efa0d07053a31163641d9fcc0adafc9d9e76f1c37c2ce3a558d2c523460405161193c9190611e75565b60405180910390a2565b61194e6119de565b600073ffffffffffffffffffffffffffffffffffffffff168173ffffffffffffffffffffffffffffffffffffffff16036119c05760006040517f1e4fbdf70000000000000000000000000000000000000000000000000000000081526004016119b79190612225565b60405180910390fd5b6119c981611ab4565b50565b6119d46119de565b8060028190555050565b6119e6611b78565b73ffffffffffffffffffffffffffffffffffffffff16611a04610ef5565b73ffffffffffffffffffffffffffffffffffffffff1614611a6357611a27611b78565b6040517f118cdaa7000000000000000000000000000000000000000000000000000000008152600401611a5a9190612225565b60405180910390fd5b565b600260015403611aa1576040517f3ee5aeb500000000000000000000000000000000000000000000000000000000815260040160405180910390fd5b6002600181905550565b60018081905550565b60008060009054906101000a900473ffffffffffffffffffffffffffffffffffffffff169050816000806101000a81548173ffffffffffffffffffffffffffffffffffffffff021916908373ffffffffffffffffffffffffffffffffffffffff1602179055508173ffffffffffffffffffffffffffffffffffffffff168173ffffffffffffffffffffffffffffffffffffffff167f8be0079c531659141344cd1fd0a4f28419497f9722a3daafe3b4186f6b6457e060405160405180910390a35050565b600033905090565b60405180610100016040528060008152602001600073ffffffffffffffffffffffffffffffffffffffff168152602001600081526020016060815260200160608152602001600073ffffffffffffffffffffffffffffffffffffffff16815260200160608152602001606081525090565b604051806060016040528060008152602001600073ffffffffffffffffffffffffffffffffffffffff168152602001600081525090565b6000604051905090565b600080fd5b600080fd5b6000819050919050565b611c4f81611c3c565b8114611c5a57600080fd5b50565b600081359050611c6c81611c46565b92915050565b600060208284031215611c8857611c87611c32565b5b6000611c9684828501611c5d565b91505092915050565b611ca881611c3c565b82525050565b600073ffffffffffffffffffffffffffffffffffffffff82169050919050565b6000611cd982611cae565b9050919050565b611ce981611cce565b82525050565b600081519050919050565b600082825260208201905092915050565b60005b83811015611d29578082015181840152602081019050611d0e565b60008484015250505050565b6000601f19601f8301169050919050565b6000611d5182611cef565b611d5b8185611cfa565b9350611d6b818560208601611d0b565b611d7481611d35565b840191505092915050565b600061010083016000830151611d986000860182611c9f565b506020830151611dab6020860182611ce0565b506040830151611dbe6040860182611c9f565b5060608301518482036060860152611dd68282611d46565b91505060808301518482036080860152611df08282611d46565b91505060a0830151611e0560a0860182611ce0565b5060c083015184820360c0860152611e1d8282611d46565b91505060e083015184820360e0860152611e378282611d46565b9150508091505092915050565b60006020820190508181036000830152611e5e8184611d7f565b905092915050565b611e6f81611c3c565b82525050565b6000602082019050611e8a6000830184611e66565b92915050565b611e9981611cce565b8114611ea457600080fd5b50565b600081359050611eb681611e90565b92915050565b600080fd5b600080fd5b7f4e487b7100000000000000000000000000000000000000000000000000000000600052604160045260246000fd5b611efe82611d35565b810181811067ffffffffffffffff82111715611f1d57611f1c611ec6565b5b80604052505050565b6000611f30611c28565b9050611f3c8282611ef5565b919050565b600067ffffffffffffffff821115611f5c57611f5b611ec6565b5b611f6582611d35565b9050602081019050919050565b82818337600083830152505050565b6000611f94611f8f84611f41565b611f26565b905082815260208101848484011115611fb057611faf611ec1565b5b611fbb848285611f72565b509392505050565b600082601f830112611fd857611fd7611ebc565b5b8135611fe8848260208601611f81565b91505092915050565b600080600080600080600060e0888a0312156120105761200f611c32565b5b600061201e8a828b01611ea7565b975050602061202f8a828b01611c5d565b965050604088013567ffffffffffffffff8111156120505761204f611c37565b5b61205c8a828b01611fc3565b955050606088013567ffffffffffffffff81111561207d5761207c611c37565b5b6120898a828b01611fc3565b945050608061209a8a828b01611ea7565b93505060a088013567ffffffffffffffff8111156120bb576120ba611c37565b5b6120c78a828b01611fc3565b92505060c088013567ffffffffffffffff8111156120e8576120e7611c37565b5b6120f48a828b01611fc3565b91505092959891949750929550565b600081519050919050565b600082825260208201905092915050565b6000819050602082019050919050565b6060820160008201516121456000850182611c9f565b5060208201516121586020850182611ce0565b50604082015161216b6040850182611c9f565b50505050565b600061217d838361212f565b60608301905092915050565b6000602082019050919050565b60006121a182612103565b6121ab818561210e565b93506121b68361211f565b8060005b838110156121e75781516121ce8882612171565b97506121d983612189565b9250506001810190506121ba565b5085935050505092915050565b6000602082019050818103600083015261220e8184612196565b905092915050565b61221f81611cce565b82525050565b600060208201905061223a6000830184612216565b92915050565b60006020828403121561225657612255611c32565b5b600061226484828501611ea7565b91505092915050565b600081519050919050565b600082825260208201905092915050565b6000819050602082019050919050565b6000610100830160008301516122b26000860182611c9f565b5060208301516122c56020860182611ce0565b5060408301516122d86040860182611c9f565b50606083015184820360608601526122f08282611d46565b9150506080830151848203608086015261230a8282611d46565b91505060a083015161231f60a0860182611ce0565b5060c083015184820360c08601526123378282611d46565b91505060e083015184820360e08601526123518282611d46565b9150508091505092915050565b600061236a8383612299565b905092915050565b6000602082019050919050565b600061238a8261226d565b6123948185612278565b9350836020820285016123a685612289565b8060005b858110156123e257848403895281516123c3858261235e565b94506123ce83612372565b925060208a019950506001810190506123aa565b50829750879550505050505092915050565b6000602082019050818103600083015261240e818461237f565b905092915050565b600082825260208201905092915050565b7f496e76616c696420746f6b656e20696e64657800000000000000000000000000600082015250565b600061245d601383612416565b915061246882612427565b602082019050919050565b6000602082019050818103600083015261248c81612450565b9050919050565b7f4e487b7100000000000000000000000000000000000000000000000000000000600052602260045260246000fd5b600060028204905060018216806124da57607f821691505b6020821081036124ed576124ec612493565b5b50919050565b7f496e73756666696369656e74206c697374696e67206665650000000000000000600082015250565b6000612529601883612416565b9150612534826124f3565b602082019050919050565b600060208201905081810360008301526125588161251c565b9050919050565b7f4e487b7100000000000000000000000000000000000000000000000000000000600052601160045260246000fd5b600061259982611c3c565b91507fffffffffffffffffffffffffffffffffffffffffffffffffffffffffffffffff82036125cb576125ca61255f565b5b600182019050919050565b60008190508160005260206000209050919050565b60006020601f8301049050919050565b600082821b905092915050565b6000600883026126387fffffffffffffffffffffffffffffffffffffffffffffffffffffffffffffffff826125fb565b61264286836125fb565b95508019841693508086168417925050509392505050565b6000819050919050565b600061267f61267a61267584611c3c565b61265a565b611c3c565b9050919050565b6000819050919050565b61269983612664565b6126ad6126a582612686565b848454612608565b825550505050565b600090565b6126c26126b5565b6126cd818484612690565b505050565b5b818110156126f1576126e66000826126ba565b6001810190506126d3565b5050565b601f82111561273657612707816125d6565b612710846125eb565b8101602085101561271f578190505b61273361272b856125eb565b8301826126d2565b50505b505050565b600082821c905092915050565b60006127596000198460080261273b565b1980831691505092915050565b60006127728383612748565b9150826002028217905092915050565b61278b82611cef565b67ffffffffffffffff8111156127a4576127a3611ec6565b5b6127ae82546124c2565b6127b98282856126f5565b600060209050601f8311600181146127ec57600084156127da578287015190505b6127e48582612766565b86555061284c565b601f1984166127fa866125d6565b60005b82811015612822578489015182556001820191506020850194506020810190506127fd565b8683101561283f578489015161283b601f891682612748565b8355505b6001600288020188555050505b505050505050565b600061285f82611c3c565b915061286a83611c3c565b92508282019050808211156128825761288161255f565b5b92915050565b7f4e487b7100000000000000000000000000000000000000000000000000000000600052603260045260246000fd5b7f496e73756666696369656e742062616c616e6365000000000000000000000000600082015250565b60006128ed601483612416565b91506128f8826128b7565b602082019050919050565b6000602082019050818103600083015261291c816128e0565b9050919050565b600081905092915050565b50565b600061293e600083612923565b91506129498261292e565b600082019050919050565b600061295f82612931565b9150819050919050565b7f5769746864726177616c206661696c6564000000000000000000000000000000600082015250565b600061299f601183612416565b91506129aa82612969565b602082019050919050565b600060208201905081810360008301526129ce81612992565b9050919050565b7f496e76616c696420646f6e6174696f6e20616d6f756e74000000000000000000600082015250565b6000612a0b601783612416565b9150612a16826129d5565b602082019050919050565b60006020820190508181036000830152612a3a816129fe565b905091905056fea264697066735822122085be7906827bd1f6c91dc476f26fc8178bb99c8beb54b779a91627b5dfcc104564736f6c63430008140033",
  "linkReferences": {},
  "deployedLinkReferences": {}
}